{
    "abi": [
        {
            "type": "constructor",
            "inputs": [
                {
                    "name": "_owner",
                    "type": "address",
                    "internalType": "address"
                }
            ],
            "stateMutability": "nonpayable"
        },
        {
            "type": "function",
            "name": "acceptOwnership",
            "inputs": [],
            "outputs": [],
            "stateMutability": "nonpayable"
        },
        {
            "type": "function",
            "name": "cancelTransferOwnership",
            "inputs": [],
            "outputs": [],
            "stateMutability": "nonpayable"
        },
        {
            "type": "function",
            "name": "clientApps",
            "inputs": [
                {
                    "name": "",
                    "type": "bytes32",
                    "internalType": "bytes32"
                }
            ],
            "outputs": [
                {
                    "name": "name",
                    "type": "string",
                    "internalType": "string"
                },
                {
                    "name": "description",
                    "type": "string",
                    "internalType": "string"
                },
                {
                    "name": "dockerUrl",
                    "type": "string",
                    "internalType": "string"
                },
                {
                    "name": "logoUrl",
                    "type": "string",
                    "internalType": "string"
                }
            ],
            "stateMutability": "view"
        },
        {
            "type": "function",
            "name": "getClientAppMetadata",
            "inputs": [
                {
                    "name": "clientAppId",
                    "type": "bytes32",
                    "internalType": "bytes32"
                }
            ],
            "outputs": [
                {
                    "name": "",
                    "type": "tuple",
                    "internalType": "struct ClientAppMetadata",
                    "components": [
                        {
                            "name": "name",
                            "type": "string",
                            "internalType": "string"
                        },
                        {
                            "name": "description",
                            "type": "string",
                            "internalType": "string"
                        },
                        {
                            "name": "dockerUrl",
                            "type": "string",
                            "internalType": "string"
                        },
                        {
                            "name": "logoUrl",
                            "type": "string",
                            "internalType": "string"
                        }
                    ]
                }
            ],
            "stateMutability": "view"
        },
        {
            "type": "function",
            "name": "isClientApp",
            "inputs": [
                {
                    "name": "",
                    "type": "bytes32",
                    "internalType": "bytes32"
                }
            ],
            "outputs": [
                {
                    "name": "",
                    "type": "bool",
                    "internalType": "bool"
                }
            ],
            "stateMutability": "view"
        },
        {
            "type": "function",
            "name": "owner",
            "inputs": [],
            "outputs": [
                {
                    "name": "",
                    "type": "address",
                    "internalType": "address"
                }
            ],
            "stateMutability": "view"
        },
        {
            "type": "function",
            "name": "pendingOwner",
            "inputs": [],
            "outputs": [
                {
                    "name": "",
                    "type": "address",
                    "internalType": "address"
                }
            ],
            "stateMutability": "view"
        },
        {
            "type": "function",
            "name": "registerClientApp",
            "inputs": [
                {
                    "name": "clientAppId",
                    "type": "bytes32",
                    "internalType": "bytes32"
                },
                {
                    "name": "metadata",
                    "type": "tuple",
                    "internalType": "struct ClientAppMetadata",
                    "components": [
                        {
                            "name": "name",
                            "type": "string",
                            "internalType": "string"
                        },
                        {
                            "name": "description",
                            "type": "string",
                            "internalType": "string"
                        },
                        {
                            "name": "dockerUrl",
                            "type": "string",
                            "internalType": "string"
                        },
                        {
                            "name": "logoUrl",
                            "type": "string",
                            "internalType": "string"
                        }
                    ]
                }
            ],
            "outputs": [],
            "stateMutability": "nonpayable"
        },
        {
            "type": "function",
            "name": "transferOwnership",
            "inputs": [
                {
                    "name": "newOwner",
                    "type": "address",
                    "internalType": "address"
                }
            ],
            "outputs": [],
            "stateMutability": "nonpayable"
        },
        {
            "type": "event",
            "name": "ClientAppRegistered",
            "inputs": [
                {
                    "name": "clientAppId",
                    "type": "bytes32",
                    "indexed": true,
                    "internalType": "bytes32"
                }
            ],
            "anonymous": false
        },
        {
            "type": "event",
            "name": "OwnershipTransferCanceled",
            "inputs": [
                {
                    "name": "pendingOwner",
                    "type": "address",
                    "indexed": true,
                    "internalType": "address"
                }
            ],
            "anonymous": false
        },
        {
            "type": "event",
            "name": "OwnershipTransferStarted",
            "inputs": [
                {
                    "name": "user",
                    "type": "address",
                    "indexed": true,
                    "internalType": "address"
                },
                {
                    "name": "newOwner",
                    "type": "address",
                    "indexed": true,
                    "internalType": "address"
                }
            ],
            "anonymous": false
        },
        {
            "type": "event",
            "name": "OwnershipTransferred",
            "inputs": [
                {
                    "name": "user",
                    "type": "address",
                    "indexed": true,
                    "internalType": "address"
                },
                {
                    "name": "newOner",
                    "type": "address",
                    "indexed": true,
                    "internalType": "address"
                }
            ],
            "anonymous": false
        },
        {
            "type": "error",
            "name": "ClientAppAlreadyExists",
            "inputs": []
        },
        {
            "type": "error",
            "name": "Unauthorized",
            "inputs": []
        }
    ],
    "bytecode": {
        "object": "0x6080604052348015600f57600080fd5b50604051610dff380380610dff833981016040819052602c91607a565b600080546001600160a01b0319166001600160a01b03831690811782556040518392907f8be0079c531659141344cd1fd0a4f28419497f9722a3daafe3b4186f6b6457e0908290a3505060a8565b600060208284031215608b57600080fd5b81516001600160a01b038116811460a157600080fd5b9392505050565b610d48806100b76000396000f3fe608060405234801561001057600080fd5b50600436106100935760003560e01c80639a01a051116100665780639a01a051146100fe5780639c7d42ab14610121578063bb05fdba14610154578063e30c397814610167578063f2fde38b1461017a57600080fd5b80630d4f49321461009857806379ba5097146100c15780638da5cb5b146100cb57806392fede00146100f6575b600080fd5b6100ab6100a636600461088f565b61018d565b6040516100b891906108ee565b60405180910390f35b6100c961041f565b005b6000546100de906001600160a01b031681565b6040516001600160a01b0390911681526020016100b8565b6100c96104a3565b61011161010c36600461088f565b610517565b6040516100b8949392919061096c565b61014461012f36600461088f565b60036020526000908152604090205460ff1681565b60405190151581526020016100b8565b6100c96101623660046109c4565b61075f565b6001546100de906001600160a01b031681565b6100c9610188366004610a12565b610819565b6101b86040518060800160405280606081526020016060815260200160608152602001606081525090565b600082815260026020526040908190208151608081019092528054829082906101e090610a42565b80601f016020809104026020016040519081016040528092919081815260200182805461020c90610a42565b80156102595780601f1061022e57610100808354040283529160200191610259565b820191906000526020600020905b81548152906001019060200180831161023c57829003601f168201915b5050505050815260200160018201805461027290610a42565b80601f016020809104026020016040519081016040528092919081815260200182805461029e90610a42565b80156102eb5780601f106102c0576101008083540402835291602001916102eb565b820191906000526020600020905b8154815290600101906020018083116102ce57829003601f168201915b5050505050815260200160028201805461030490610a42565b80601f016020809104026020016040519081016040528092919081815260200182805461033090610a42565b801561037d5780601f106103525761010080835404028352916020019161037d565b820191906000526020600020905b81548152906001019060200180831161036057829003601f168201915b5050505050815260200160038201805461039690610a42565b80601f01602080910402602001604051908101604052809291908181526020018280546103c290610a42565b801561040f5780601f106103e45761010080835404028352916020019161040f565b820191906000526020600020905b8154815290600101906020018083116103f257829003601f168201915b5050505050815250509050919050565b6001546001600160a01b03163314610449576040516282b42960e81b815260040160405180910390fd5b60008054600180546001600160a01b038082166001600160a01b031980861682178755909216909255604051919092169283917f8be0079c531659141344cd1fd0a4f28419497f9722a3daafe3b4186f6b6457e09190a350565b6000546001600160a01b031633146104cd576040516282b42960e81b815260040160405180910390fd5b6001546040516001600160a01b03909116907f6ecd4842251bedd053b09547c0fabaab9ec98506ebf24469e8dd5560412ed37f90600090a2600180546001600160a01b0319169055565b60026020526000908152604090208054819061053290610a42565b80601f016020809104026020016040519081016040528092919081815260200182805461055e90610a42565b80156105ab5780601f10610580576101008083540402835291602001916105ab565b820191906000526020600020905b81548152906001019060200180831161058e57829003601f168201915b5050505050908060010180546105c090610a42565b80601f01602080910402602001604051908101604052809291908181526020018280546105ec90610a42565b80156106395780601f1061060e57610100808354040283529160200191610639565b820191906000526020600020905b81548152906001019060200180831161061c57829003601f168201915b50505050509080600201805461064e90610a42565b80601f016020809104026020016040519081016040528092919081815260200182805461067a90610a42565b80156106c75780601f1061069c576101008083540402835291602001916106c7565b820191906000526020600020905b8154815290600101906020018083116106aa57829003601f168201915b5050505050908060030180546106dc90610a42565b80601f016020809104026020016040519081016040528092919081815260200182805461070890610a42565b80156107555780601f1061072a57610100808354040283529160200191610755565b820191906000526020600020905b81548152906001019060200180831161073857829003601f168201915b5050505050905084565b6000546001600160a01b03163314610789576040516282b42960e81b815260040160405180910390fd5b60008281526003602052604090205460ff16156107b9576040516302a7196760e31b815260040160405180910390fd5b600082815260026020526040902081906107d38282610bef565b5050600082815260036020526040808220805460ff191660011790555183917f7b8c43097343f6ff5ef86a902c793ebfe57aabbd27a321fa0258cca8fe30a80891a25050565b6000546001600160a01b03163314610843576040516282b42960e81b815260040160405180910390fd5b600180546001600160a01b0319166001600160a01b03831690811790915560405133907f38d16b8cac22d99fc7c124b9cd0de2d3fa1faef420bfe791d8c362d765e2270090600090a350565b6000602082840312156108a157600080fd5b5035919050565b6000815180845260005b818110156108ce576020818501810151868301820152016108b2565b506000602082860101526020601f19601f83011685010191505092915050565b60208152600082516080602084015261090a60a08401826108a8565b90506020840151601f1984830301604085015261092782826108a8565b9150506040840151601f1984830301606085015261094582826108a8565b9150506060840151601f1984830301608085015261096382826108a8565b95945050505050565b60808152600061097f60808301876108a8565b828103602084015261099181876108a8565b905082810360408401526109a581866108a8565b905082810360608401526109b981856108a8565b979650505050505050565b600080604083850312156109d757600080fd5b82359150602083013567ffffffffffffffff8111156109f557600080fd5b830160808186031215610a0757600080fd5b809150509250929050565b600060208284031215610a2457600080fd5b81356001600160a01b0381168114610a3b57600080fd5b9392505050565b600181811c90821680610a5657607f821691505b602082108103610a7657634e487b7160e01b600052602260045260246000fd5b50919050565b6000808335601e19843603018112610a9357600080fd5b83018035915067ffffffffffffffff821115610aae57600080fd5b602001915036819003821315610ac357600080fd5b9250929050565b634e487b7160e01b600052604160045260246000fd5b601f821115610b2a57806000526020600020601f840160051c81016020851015610b075750805b601f840160051c820191505b81811015610b275760008155600101610b13565b50505b505050565b67ffffffffffffffff831115610b4757610b47610aca565b610b5b83610b558354610a42565b83610ae0565b6000601f841160018114610b8f5760008515610b775750838201355b600019600387901b1c1916600186901b178355610b27565b600083815260209020601f19861690835b82811015610bc05786850135825560209485019460019092019101610ba0565b5086821015610bdd5760001960f88860031b161c19848701351681555b505060018560011b0183555050505050565b610bf98283610a7c565b67ffffffffffffffff811115610c1157610c11610aca565b610c2581610c1f8554610a42565b85610ae0565b6000601f821160018114610c595760008315610c415750838201355b600019600385901b1c1916600184901b178555610cb3565b600085815260209020601f19841690835b82811015610c8a5786850135825560209485019460019092019101610c6a565b5084821015610ca75760001960f88660031b161c19848701351681555b505060018360011b0185555b50505050610cc46020830183610a7c565b610cd2818360018601610b2f565b5050610ce16040830183610a7c565b610cef818360028601610b2f565b5050610cfe6060830183610a7c565b610d0c818360038601610b2f565b5050505056fea26469706673582212207a38760c7b8e43969659131dec2964cdfc52b589c57e86e047cc1a28e384a0a864736f6c634300081a0033",
        "linkReferences": {}
    },
    "methodIdentifiers": {
        "acceptOwnership()": "79ba5097",
        "cancelTransferOwnership()": "92fede00",
        "clientApps(bytes32)": "9a01a051",
        "getClientAppMetadata(bytes32)": "0d4f4932",
        "isClientApp(bytes32)": "9c7d42ab",
        "owner()": "8da5cb5b",
        "pendingOwner()": "e30c3978",
        "registerClientApp(bytes32,(string,string,string,string))": "bb05fdba",
        "transferOwnership(address)": "f2fde38b"
    },
    "id": 28
}