{
    "abi": [
        {
            "type": "constructor",
            "inputs": [
                {
                    "name": "_owner",
                    "type": "address",
                    "internalType": "address"
                },
                {
                    "name": "_avsDirectory",
                    "type": "address",
                    "internalType": "address"
                },
                {
                    "name": "_clientAppRegistry",
                    "type": "address",
                    "internalType": "address"
                }
            ],
            "stateMutability": "nonpayable"
        },
        {
            "type": "function",
            "name": "acceptOwnership",
            "inputs": [],
            "outputs": [],
            "stateMutability": "nonpayable"
        },
        {
            "type": "function",
            "name": "avsDirectory",
            "inputs": [],
            "outputs": [
                {
                    "name": "",
                    "type": "address",
                    "internalType": "contract IAVSDirectory"
                }
            ],
            "stateMutability": "view"
        },
        {
            "type": "function",
            "name": "cancelTransferOwnership",
            "inputs": [],
            "outputs": [],
            "stateMutability": "nonpayable"
        },
        {
            "type": "function",
            "name": "clientAppRegistry",
            "inputs": [],
            "outputs": [
                {
                    "name": "",
                    "type": "address",
                    "internalType": "contract IClientAppRegistry"
                }
            ],
            "stateMutability": "view"
        },
        {
            "type": "function",
            "name": "deregisterOperatorFromAVS",
            "inputs": [
                {
                    "name": "operator",
                    "type": "address",
                    "internalType": "address"
                }
            ],
            "outputs": [],
            "stateMutability": "nonpayable"
        },
        {
            "type": "function",
            "name": "isOperatorRegistered",
            "inputs": [
                {
                    "name": "operator",
                    "type": "address",
                    "internalType": "address"
                }
            ],
            "outputs": [
                {
                    "name": "isRegistered",
                    "type": "bool",
                    "internalType": "bool"
                }
            ],
            "stateMutability": "view"
        },
        {
            "type": "function",
            "name": "operatorClientAppIdRegistrationStatus",
            "inputs": [
                {
                    "name": "operator",
                    "type": "address",
                    "internalType": "address"
                },
                {
                    "name": "clientAppId",
                    "type": "bytes32",
                    "internalType": "bytes32"
                }
            ],
            "outputs": [
                {
                    "name": "isRegistered",
                    "type": "bool",
                    "internalType": "bool"
                }
            ],
            "stateMutability": "view"
        },
        {
            "type": "function",
            "name": "optInClientAppId",
            "inputs": [
                {
                    "name": "clientAppId",
                    "type": "bytes32",
                    "internalType": "bytes32"
                }
            ],
            "outputs": [],
            "stateMutability": "nonpayable"
        },
        {
            "type": "function",
            "name": "owner",
            "inputs": [],
            "outputs": [
                {
                    "name": "",
                    "type": "address",
                    "internalType": "address"
                }
            ],
            "stateMutability": "view"
        },
        {
            "type": "function",
            "name": "pendingOwner",
            "inputs": [],
            "outputs": [
                {
                    "name": "",
                    "type": "address",
                    "internalType": "address"
                }
            ],
            "stateMutability": "view"
        },
        {
            "type": "function",
            "name": "registerOperatorToAVS",
            "inputs": [
                {
                    "name": "operator",
                    "type": "address",
                    "internalType": "address"
                },
                {
                    "name": "operatorSignature",
                    "type": "tuple",
                    "internalType": "struct ISignatureUtils.SignatureWithSaltAndExpiry",
                    "components": [
                        {
                            "name": "signature",
                            "type": "bytes",
                            "internalType": "bytes"
                        },
                        {
                            "name": "salt",
                            "type": "bytes32",
                            "internalType": "bytes32"
                        },
                        {
                            "name": "expiry",
                            "type": "uint256",
                            "internalType": "uint256"
                        }
                    ]
                }
            ],
            "outputs": [],
            "stateMutability": "nonpayable"
        },
        {
            "type": "function",
            "name": "transferOwnership",
            "inputs": [
                {
                    "name": "newOwner",
                    "type": "address",
                    "internalType": "address"
                }
            ],
            "outputs": [],
            "stateMutability": "nonpayable"
        },
        {
            "type": "function",
            "name": "updateAVSMetadataURI",
            "inputs": [
                {
                    "name": "_metadataURI",
                    "type": "string",
                    "internalType": "string"
                }
            ],
            "outputs": [],
            "stateMutability": "nonpayable"
        },
        {
            "type": "event",
            "name": "ClientAppIdDeregistered",
            "inputs": [
                {
                    "name": "operator",
                    "type": "address",
                    "indexed": true,
                    "internalType": "address"
                },
                {
                    "name": "clientAppId",
                    "type": "bytes32",
                    "indexed": false,
                    "internalType": "bytes32"
                }
            ],
            "anonymous": false
        },
        {
            "type": "event",
            "name": "ClientAppIdRegistered",
            "inputs": [
                {
                    "name": "operator",
                    "type": "address",
                    "indexed": true,
                    "internalType": "address"
                },
                {
                    "name": "clientAppId",
                    "type": "bytes32",
                    "indexed": false,
                    "internalType": "bytes32"
                }
            ],
            "anonymous": false
        },
        {
            "type": "event",
            "name": "OperatorDeregistered",
            "inputs": [
                {
                    "name": "operator",
                    "type": "address",
                    "indexed": true,
                    "internalType": "address"
                }
            ],
            "anonymous": false
        },
        {
            "type": "event",
            "name": "OperatorRegistered",
            "inputs": [
                {
                    "name": "operator",
                    "type": "address",
                    "indexed": true,
                    "internalType": "address"
                }
            ],
            "anonymous": false
        },
        {
            "type": "event",
            "name": "OwnershipTransferCanceled",
            "inputs": [
                {
                    "name": "pendingOwner",
                    "type": "address",
                    "indexed": true,
                    "internalType": "address"
                }
            ],
            "anonymous": false
        },
        {
            "type": "event",
            "name": "OwnershipTransferStarted",
            "inputs": [
                {
                    "name": "user",
                    "type": "address",
                    "indexed": true,
                    "internalType": "address"
                },
                {
                    "name": "newOwner",
                    "type": "address",
                    "indexed": true,
                    "internalType": "address"
                }
            ],
            "anonymous": false
        },
        {
            "type": "event",
            "name": "OwnershipTransferred",
            "inputs": [
                {
                    "name": "user",
                    "type": "address",
                    "indexed": true,
                    "internalType": "address"
                },
                {
                    "name": "newOner",
                    "type": "address",
                    "indexed": true,
                    "internalType": "address"
                }
            ],
            "anonymous": false
        },
        {
            "type": "error",
            "name": "ClientAppIdInvalid",
            "inputs": []
        },
        {
            "type": "error",
            "name": "OperatorNotRegistered",
            "inputs": []
        },
        {
            "type": "error",
            "name": "Unauthorized",
            "inputs": []
        }
    ],
    "bytecode": {
        "object": "0x60c060405234801561001057600080fd5b50604051610b76380380610b7683398101604081905261002f916100ac565b600080546001600160a01b0319166001600160a01b03851690811782556040518592907f8be0079c531659141344cd1fd0a4f28419497f9722a3daafe3b4186f6b6457e0908290a3506001600160a01b039182166080521660a052506100ef565b80516001600160a01b03811681146100a757600080fd5b919050565b6000806000606084860312156100c157600080fd5b6100ca84610090565b92506100d860208501610090565b91506100e660408501610090565b90509250925092565b60805160a051610a4661013060003960008181610188015261058201526000818161013f015281816103460152818161041c01526105020152610a466000f3fe608060405234801561001057600080fd5b50600436106100cf5760003560e01c806392fede001161008c578063a98fb35511610066578063a98fb355146101eb578063af7f248b146101fe578063e30c397814610211578063f2fde38b1461022457600080fd5b806392fede00146101bd5780639926ee7d146101c5578063a364f4da146101d857600080fd5b80632e6ecb7d146100d45780636b1906f8146101175780636b3aa72e1461013a57806379ba50971461017957806381755976146101835780638da5cb5b146101aa575b600080fd5b6101026100e236600461072d565b600360209081526000928352604080842090915290825290205460ff1681565b60405190151581526020015b60405180910390f35b610102610125366004610757565b60026020526000908152604090205460ff1681565b6101617f000000000000000000000000000000000000000000000000000000000000000081565b6040516001600160a01b03909116815260200161010e565b610181610237565b005b6101617f000000000000000000000000000000000000000000000000000000000000000081565b600054610161906001600160a01b031681565b6101816102bb565b6101816101d3366004610832565b61032f565b6101816101e6366004610757565b6103fd565b6101816101f93660046108e0565b6104c1565b61018161020c366004610931565b61056c565b600154610161906001600160a01b031681565b610181610232366004610757565b61069b565b6001546001600160a01b03163314610261576040516282b42960e81b815260040160405180910390fd5b60008054600180546001600160a01b038082166001600160a01b031980861682178755909216909255604051919092169283917f8be0079c531659141344cd1fd0a4f28419497f9722a3daafe3b4186f6b6457e09190a350565b6000546001600160a01b031633146102e5576040516282b42960e81b815260040160405180910390fd5b6001546040516001600160a01b03909116907f6ecd4842251bedd053b09547c0fabaab9ec98506ebf24469e8dd5560412ed37f90600090a2600180546001600160a01b0319169055565b604051639926ee7d60e01b81526001600160a01b037f00000000000000000000000000000000000000000000000000000000000000001690639926ee7d9061037d9085908590600401610990565b600060405180830381600087803b15801561039757600080fd5b505af11580156103ab573d6000803e3d6000fd5b5050506001600160a01b038316600081815260026020526040808220805460ff19166001179055519192507f4d0eb1f4bac8744fd2be119845e23b3befc88094b42bcda1204c65694a00f9e591a25050565b6040516351b27a6d60e11b81526001600160a01b0382811660048301527f0000000000000000000000000000000000000000000000000000000000000000169063a364f4da90602401600060405180830381600087803b15801561046057600080fd5b505af1158015610474573d6000803e3d6000fd5b505050506001600160a01b038116600081815260026020526040808220805460ff19169055517f6dd4ca66565fb3dee8076c654634c6c4ad949022d809d0394308617d6791218d9190a250565b6000546001600160a01b031633146104eb576040516282b42960e81b815260040160405180910390fd5b60405163a98fb35560e01b81526001600160a01b037f0000000000000000000000000000000000000000000000000000000000000000169063a98fb355906105379084906004016109db565b600060405180830381600087803b15801561055157600080fd5b505af1158015610565573d6000803e3d6000fd5b5050505050565b604051639c7d42ab60e01b8152600481018290527f00000000000000000000000000000000000000000000000000000000000000006001600160a01b031690639c7d42ab90602401602060405180830381865afa1580156105d1573d6000803e3d6000fd5b505050506040513d601f19601f820116820180604052508101906105f591906109ee565b610612576040516304ef97d960e11b815260040160405180910390fd5b3360009081526002602052604090205460ff16610642576040516325ec6c1f60e01b815260040160405180910390fd5b336000818152600360209081526040808320858452825291829020805460ff1916600117905590518381527fa66b626cfddcb749d7f973a195fdf2fd34e230e25233c1a7edf356fbc9a3dde1910160405180910390a250565b6000546001600160a01b031633146106c5576040516282b42960e81b815260040160405180910390fd5b600180546001600160a01b0319166001600160a01b03831690811790915560405133907f38d16b8cac22d99fc7c124b9cd0de2d3fa1faef420bfe791d8c362d765e2270090600090a350565b80356001600160a01b038116811461072857600080fd5b919050565b6000806040838503121561074057600080fd5b61074983610711565b946020939093013593505050565b60006020828403121561076957600080fd5b61077282610711565b9392505050565b634e487b7160e01b600052604160045260246000fd5b6040516060810167ffffffffffffffff811182821017156107b2576107b2610779565b60405290565b60008067ffffffffffffffff8411156107d3576107d3610779565b50604051601f19601f85018116603f0116810181811067ffffffffffffffff8211171561080257610802610779565b60405283815290508082840185101561081a57600080fd5b83836020830137600060208583010152509392505050565b6000806040838503121561084557600080fd5b61084e83610711565b9150602083013567ffffffffffffffff81111561086a57600080fd5b83016060818603121561087c57600080fd5b61088461078f565b813567ffffffffffffffff81111561089b57600080fd5b8201601f810187136108ac57600080fd5b6108bb878235602084016107b8565b8252506020828101359082015260409182013591810191909152919491935090915050565b6000602082840312156108f257600080fd5b813567ffffffffffffffff81111561090957600080fd5b8201601f8101841361091a57600080fd5b610929848235602084016107b8565b949350505050565b60006020828403121561094357600080fd5b5035919050565b6000815180845260005b8181101561097057602081850181015186830182015201610954565b506000602082860101526020601f19601f83011685010191505092915050565b60018060a01b03831681526040602082015260008251606060408401526109ba60a084018261094a565b90506020840151606084015260408401516080840152809150509392505050565b602081526000610772602083018461094a565b600060208284031215610a0057600080fd5b8151801515811461077257600080fdfea26469706673582212201965a3a332e058173b0adc448d4e86e4ed7760c061277eb41d92cb4d7f82ae9264736f6c634300081a0033",
        "linkReferences": {}
    },
    "methodIdentifiers": {
        "acceptOwnership()": "79ba5097",
        "avsDirectory()": "6b3aa72e",
        "cancelTransferOwnership()": "92fede00",
        "clientAppRegistry()": "81755976",
        "deregisterOperatorFromAVS(address)": "a364f4da",
        "isOperatorRegistered(address)": "6b1906f8",
        "operatorClientAppIdRegistrationStatus(address,bytes32)": "2e6ecb7d",
        "optInClientAppId(bytes32)": "af7f248b",
        "owner()": "8da5cb5b",
        "pendingOwner()": "e30c3978",
        "registerOperatorToAVS(address,(bytes,bytes32,uint256))": "9926ee7d",
        "transferOwnership(address)": "f2fde38b",
        "updateAVSMetadataURI(string)": "a98fb355"
    },
    "id": 29
}