{
    "abi": [
        {
            "type": "constructor",
            "inputs": [
                {
                    "name": "_owner",
                    "type": "address",
                    "internalType": "address"
                },
                {
                    "name": "_aggregatorNode",
                    "type": "address",
                    "internalType": "address"
                },
                {
                    "name": "_clientAppRegistry",
                    "type": "address",
                    "internalType": "address"
                }
            ],
            "stateMutability": "nonpayable"
        },
        {
            "type": "function",
            "name": "acceptOwnership",
            "inputs": [],
            "outputs": [],
            "stateMutability": "nonpayable"
        },
        {
            "type": "function",
            "name": "aggregatorNode",
            "inputs": [],
            "outputs": [
                {
                    "name": "",
                    "type": "address",
                    "internalType": "address"
                }
            ],
            "stateMutability": "view"
        },
        {
            "type": "function",
            "name": "cancelTransferOwnership",
            "inputs": [],
            "outputs": [],
            "stateMutability": "nonpayable"
        },
        {
            "type": "function",
            "name": "clientAppRegistry",
            "inputs": [],
            "outputs": [
                {
                    "name": "",
                    "type": "address",
                    "internalType": "address"
                }
            ],
            "stateMutability": "view"
        },
        {
            "type": "function",
            "name": "createTask",
            "inputs": [
                {
                    "name": "appId",
                    "type": "bytes32",
                    "internalType": "bytes32"
                }
            ],
            "outputs": [],
            "stateMutability": "nonpayable"
        },
        {
            "type": "function",
            "name": "owner",
            "inputs": [],
            "outputs": [
                {
                    "name": "",
                    "type": "address",
                    "internalType": "address"
                }
            ],
            "stateMutability": "view"
        },
        {
            "type": "function",
            "name": "pendingOwner",
            "inputs": [],
            "outputs": [
                {
                    "name": "",
                    "type": "address",
                    "internalType": "address"
                }
            ],
            "stateMutability": "view"
        },
        {
            "type": "function",
            "name": "respondToTask",
            "inputs": [
                {
                    "name": "taskId",
                    "type": "bytes32",
                    "internalType": "bytes32"
                },
                {
                    "name": "status",
                    "type": "uint8",
                    "internalType": "enum TaskRegistry.TaskStatus"
                },
                {
                    "name": "taskResult",
                    "type": "uint256",
                    "internalType": "uint256"
                }
            ],
            "outputs": [],
            "stateMutability": "nonpayable"
        },
        {
            "type": "function",
            "name": "setAggregatorNode",
            "inputs": [
                {
                    "name": "_aggregatorNode",
                    "type": "address",
                    "internalType": "address"
                }
            ],
            "outputs": [],
            "stateMutability": "nonpayable"
        },
        {
            "type": "function",
            "name": "setClientAppRegistry",
            "inputs": [
                {
                    "name": "_clientAppRegistry",
                    "type": "address",
                    "internalType": "address"
                }
            ],
            "outputs": [],
            "stateMutability": "nonpayable"
        },
        {
            "type": "function",
            "name": "tasks",
            "inputs": [
                {
                    "name": "",
                    "type": "bytes32",
                    "internalType": "bytes32"
                }
            ],
            "outputs": [
                {
                    "name": "",
                    "type": "uint8",
                    "internalType": "enum TaskRegistry.TaskStatus"
                }
            ],
            "stateMutability": "view"
        },
        {
            "type": "function",
            "name": "transferOwnership",
            "inputs": [
                {
                    "name": "newOwner",
                    "type": "address",
                    "internalType": "address"
                }
            ],
            "outputs": [],
            "stateMutability": "nonpayable"
        },
        {
            "type": "event",
            "name": "OwnershipTransferCanceled",
            "inputs": [
                {
                    "name": "pendingOwner",
                    "type": "address",
                    "indexed": true,
                    "internalType": "address"
                }
            ],
            "anonymous": false
        },
        {
            "type": "event",
            "name": "OwnershipTransferStarted",
            "inputs": [
                {
                    "name": "user",
                    "type": "address",
                    "indexed": true,
                    "internalType": "address"
                },
                {
                    "name": "newOwner",
                    "type": "address",
                    "indexed": true,
                    "internalType": "address"
                }
            ],
            "anonymous": false
        },
        {
            "type": "event",
            "name": "OwnershipTransferred",
            "inputs": [
                {
                    "name": "user",
                    "type": "address",
                    "indexed": true,
                    "internalType": "address"
                },
                {
                    "name": "newOner",
                    "type": "address",
                    "indexed": true,
                    "internalType": "address"
                }
            ],
            "anonymous": false
        },
        {
            "type": "event",
            "name": "TaskRequested",
            "inputs": [
                {
                    "name": "taskId",
                    "type": "bytes32",
                    "indexed": true,
                    "internalType": "bytes32"
                },
                {
                    "name": "taskRequest",
                    "type": "tuple",
                    "indexed": false,
                    "internalType": "struct TaskRegistry.TaskRequest",
                    "components": [
                        {
                            "name": "appId",
                            "type": "bytes32",
                            "internalType": "bytes32"
                        }
                    ]
                }
            ],
            "anonymous": false
        },
        {
            "type": "event",
            "name": "TaskResponded",
            "inputs": [
                {
                    "name": "taskId",
                    "type": "bytes32",
                    "indexed": true,
                    "internalType": "bytes32"
                },
                {
                    "name": "status",
                    "type": "uint8",
                    "indexed": false,
                    "internalType": "enum TaskRegistry.TaskStatus"
                },
                {
                    "name": "taskResult",
                    "type": "uint256",
                    "indexed": false,
                    "internalType": "uint256"
                }
            ],
            "anonymous": false
        },
        {
            "type": "error",
            "name": "InvalidAppId",
            "inputs": []
        },
        {
            "type": "error",
            "name": "InvalidTaskOperation",
            "inputs": []
        },
        {
            "type": "error",
            "name": "TaskAlreadyExists",
            "inputs": []
        },
        {
            "type": "error",
            "name": "Unauthorized",
            "inputs": []
        }
    ],
    "bytecode": {
        "object": "0x608060405234801561001057600080fd5b506040516108a83803806108a883398101604081905261002f916100c6565b600080546001600160a01b0319166001600160a01b03851690811782556040518592907f8be0079c531659141344cd1fd0a4f28419497f9722a3daafe3b4186f6b6457e0908290a350600280546001600160a01b039384166001600160a01b0319918216179091556003805492909316911617905550610109565b80516001600160a01b03811681146100c157600080fd5b919050565b6000806000606084860312156100db57600080fd5b6100e4846100aa565b92506100f2602085016100aa565b9150610100604085016100aa565b90509250925092565b610790806101186000396000f3fe608060405234801561001057600080fd5b50600436106100b45760003560e01c80638da5cb5b116100715780638da5cb5b1461013f57806392fede0014610152578063b293e81c1461015a578063e30c39781461016d578063e579f50014610180578063f2fde38b146101b057600080fd5b80632f27365d146100b957806344ac01a8146100ce5780635b154f3c146100fe57806379ba5097146101115780638175597614610119578063876c86001461012c575b600080fd5b6100cc6100c736600461064c565b6101c3565b005b6002546100e1906001600160a01b031681565b6040516001600160a01b0390911681526020015b60405180910390f35b6100cc61010c366004610688565b6102ee565b6100cc61033a565b6003546100e1906001600160a01b031681565b6100cc61013a366004610688565b6103be565b6000546100e1906001600160a01b031681565b6100cc61040a565b6100cc6101683660046106b8565b61047e565b6001546100e1906001600160a01b031681565b6101a361018e3660046106b8565b60046020526000908152604090205460ff1681565b6040516100f59190610709565b6100cc6101be366004610688565b6105d6565b6002546001600160a01b031633146101ed576040516282b42960e81b815260040160405180910390fd5b6000826003811115610201576102016106d1565b148061021e5750600182600381111561021c5761021c6106d1565b145b1561023c5760405163efce4e1560e01b815260040160405180910390fd5b600160008481526004602052604090205460ff166003811115610261576102616106d1565b1461027f5760405163efce4e1560e01b815260040160405180910390fd5b6000838152600460205260409020805483919060ff191660018360038111156102aa576102aa6106d1565b0217905550827f730ef0406749b6b8b1760610a1f1b5dbedbc23313385ab95c169889c95e7169383836040516102e192919061071d565b60405180910390a2505050565b6000546001600160a01b03163314610318576040516282b42960e81b815260040160405180910390fd5b600280546001600160a01b0319166001600160a01b0392909216919091179055565b6001546001600160a01b03163314610364576040516282b42960e81b815260040160405180910390fd5b60008054600180546001600160a01b038082166001600160a01b031980861682178755909216909255604051919092169283917f8be0079c531659141344cd1fd0a4f28419497f9722a3daafe3b4186f6b6457e09190a350565b6000546001600160a01b031633146103e8576040516282b42960e81b815260040160405180910390fd5b600380546001600160a01b0319166001600160a01b0392909216919091179055565b6000546001600160a01b03163314610434576040516282b42960e81b815260040160405180910390fd5b6001546040516001600160a01b03909116907f6ecd4842251bedd053b09547c0fabaab9ec98506ebf24469e8dd5560412ed37f90600090a2600180546001600160a01b0319169055565b600354604051639c7d42ab60e01b8152600481018390526001600160a01b0390911690639c7d42ab90602401602060405180830381865afa1580156104c7573d6000803e3d6000fd5b505050506040513d601f19601f820116820180604052508101906104eb9190610738565b61050857604051636470515b60e01b815260040160405180910390fd5b6040805133602082015290810182905242606082015260009060800160408051601f19818403018152919052805160209091012090506000808281526004602052604090205460ff166003811115610562576105626106d1565b146105805760405163f2e16b0360e01b815260040160405180910390fd5b600081815260046020908152604091829020805460ff1916600117905581518082018352848152915184815283917fb2b82bbb00a38569563ea9ba50c52c494c1f0dc295e5c85da716b0c29901fb2391016102e1565b6000546001600160a01b03163314610600576040516282b42960e81b815260040160405180910390fd5b600180546001600160a01b0319166001600160a01b03831690811790915560405133907f38d16b8cac22d99fc7c124b9cd0de2d3fa1faef420bfe791d8c362d765e2270090600090a350565b60008060006060848603121561066157600080fd5b8335925060208401356004811061067757600080fd5b929592945050506040919091013590565b60006020828403121561069a57600080fd5b81356001600160a01b03811681146106b157600080fd5b9392505050565b6000602082840312156106ca57600080fd5b5035919050565b634e487b7160e01b600052602160045260246000fd5b6004811061070557634e487b7160e01b600052602160045260246000fd5b9052565b6020810161071782846106e7565b92915050565b6040810161072b82856106e7565b8260208301529392505050565b60006020828403121561074a57600080fd5b815180151581146106b157600080fdfea2646970667358221220aaf3fe0dbfd2a229803e055337a7f80f1add72130d0a17836f1b3aff69c426d764736f6c634300081a0033",
        "linkReferences": {}
    },
    "methodIdentifiers": {
        "acceptOwnership()": "79ba5097",
        "aggregatorNode()": "44ac01a8",
        "cancelTransferOwnership()": "92fede00",
        "clientAppRegistry()": "81755976",
        "createTask(bytes32)": "b293e81c",
        "owner()": "8da5cb5b",
        "pendingOwner()": "e30c3978",
        "respondToTask(bytes32,uint8,uint256)": "2f27365d",
        "setAggregatorNode(address)": "5b154f3c",
        "setClientAppRegistry(address)": "876c8600",
        "tasks(bytes32)": "e579f500",
        "transferOwnership(address)": "f2fde38b"
    },
    "id": 31
}